{
  "contractName": "NFTContract",
  "abi": [
    {
      "inputs": [],
      "stateMutability": "nonpayable",
      "type": "constructor"
    },
    {
      "anonymous": false,
      "inputs": [
        {
          "indexed": true,
          "internalType": "address",
          "name": "owner",
          "type": "address"
        },
        {
          "indexed": true,
          "internalType": "address",
          "name": "approved",
          "type": "address"
        },
        {
          "indexed": true,
          "internalType": "uint256",
          "name": "tokenId",
          "type": "uint256"
        }
      ],
      "name": "Approval",
      "type": "event"
    },
    {
      "anonymous": false,
      "inputs": [
        {
          "indexed": true,
          "internalType": "address",
          "name": "owner",
          "type": "address"
        },
        {
          "indexed": true,
          "internalType": "address",
          "name": "operator",
          "type": "address"
        },
        {
          "indexed": false,
          "internalType": "bool",
          "name": "approved",
          "type": "bool"
        }
      ],
      "name": "ApprovalForAll",
      "type": "event"
    },
    {
      "anonymous": false,
      "inputs": [
        {
          "indexed": false,
          "internalType": "uint256",
          "name": "_fromTokenId",
          "type": "uint256"
        },
        {
          "indexed": false,
          "internalType": "uint256",
          "name": "_toTokenId",
          "type": "uint256"
        }
      ],
      "name": "BatchMetadataUpdate",
      "type": "event"
    },
    {
      "anonymous": false,
      "inputs": [
        {
          "indexed": false,
          "internalType": "uint256",
          "name": "_tokenId",
          "type": "uint256"
        }
      ],
      "name": "MetadataUpdate",
      "type": "event"
    },
    {
      "anonymous": false,
      "inputs": [
        {
          "indexed": true,
          "internalType": "address",
          "name": "from",
          "type": "address"
        },
        {
          "indexed": true,
          "internalType": "address",
          "name": "to",
          "type": "address"
        },
        {
          "indexed": true,
          "internalType": "uint256",
          "name": "tokenId",
          "type": "uint256"
        }
      ],
      "name": "Transfer",
      "type": "event"
    },
    {
      "inputs": [
        {
          "internalType": "address",
          "name": "to",
          "type": "address"
        },
        {
          "internalType": "uint256",
          "name": "tokenId",
          "type": "uint256"
        }
      ],
      "name": "approve",
      "outputs": [],
      "stateMutability": "nonpayable",
      "type": "function"
    },
    {
      "inputs": [
        {
          "internalType": "address",
          "name": "owner",
          "type": "address"
        }
      ],
      "name": "balanceOf",
      "outputs": [
        {
          "internalType": "uint256",
          "name": "",
          "type": "uint256"
        }
      ],
      "stateMutability": "view",
      "type": "function"
    },
    {
      "inputs": [
        {
          "internalType": "uint256",
          "name": "tokenId",
          "type": "uint256"
        }
      ],
      "name": "getApproved",
      "outputs": [
        {
          "internalType": "address",
          "name": "",
          "type": "address"
        }
      ],
      "stateMutability": "view",
      "type": "function"
    },
    {
      "inputs": [
        {
          "internalType": "address",
          "name": "owner",
          "type": "address"
        },
        {
          "internalType": "address",
          "name": "operator",
          "type": "address"
        }
      ],
      "name": "isApprovedForAll",
      "outputs": [
        {
          "internalType": "bool",
          "name": "",
          "type": "bool"
        }
      ],
      "stateMutability": "view",
      "type": "function"
    },
    {
      "inputs": [],
      "name": "name",
      "outputs": [
        {
          "internalType": "string",
          "name": "",
          "type": "string"
        }
      ],
      "stateMutability": "view",
      "type": "function"
    },
    {
      "inputs": [
        {
          "internalType": "uint256",
          "name": "tokenId",
          "type": "uint256"
        }
      ],
      "name": "ownerOf",
      "outputs": [
        {
          "internalType": "address",
          "name": "",
          "type": "address"
        }
      ],
      "stateMutability": "view",
      "type": "function"
    },
    {
      "inputs": [
        {
          "internalType": "address",
          "name": "from",
          "type": "address"
        },
        {
          "internalType": "address",
          "name": "to",
          "type": "address"
        },
        {
          "internalType": "uint256",
          "name": "tokenId",
          "type": "uint256"
        }
      ],
      "name": "safeTransferFrom",
      "outputs": [],
      "stateMutability": "nonpayable",
      "type": "function"
    },
    {
      "inputs": [
        {
          "internalType": "address",
          "name": "from",
          "type": "address"
        },
        {
          "internalType": "address",
          "name": "to",
          "type": "address"
        },
        {
          "internalType": "uint256",
          "name": "tokenId",
          "type": "uint256"
        },
        {
          "internalType": "bytes",
          "name": "data",
          "type": "bytes"
        }
      ],
      "name": "safeTransferFrom",
      "outputs": [],
      "stateMutability": "nonpayable",
      "type": "function"
    },
    {
      "inputs": [
        {
          "internalType": "address",
          "name": "operator",
          "type": "address"
        },
        {
          "internalType": "bool",
          "name": "approved",
          "type": "bool"
        }
      ],
      "name": "setApprovalForAll",
      "outputs": [],
      "stateMutability": "nonpayable",
      "type": "function"
    },
    {
      "inputs": [
        {
          "internalType": "bytes4",
          "name": "interfaceId",
          "type": "bytes4"
        }
      ],
      "name": "supportsInterface",
      "outputs": [
        {
          "internalType": "bool",
          "name": "",
          "type": "bool"
        }
      ],
      "stateMutability": "view",
      "type": "function"
    },
    {
      "inputs": [],
      "name": "symbol",
      "outputs": [
        {
          "internalType": "string",
          "name": "",
          "type": "string"
        }
      ],
      "stateMutability": "view",
      "type": "function"
    },
    {
      "inputs": [
        {
          "internalType": "uint256",
          "name": "tokenId",
          "type": "uint256"
        }
      ],
      "name": "tokenURI",
      "outputs": [
        {
          "internalType": "string",
          "name": "",
          "type": "string"
        }
      ],
      "stateMutability": "view",
      "type": "function"
    },
    {
      "inputs": [
        {
          "internalType": "address",
          "name": "from",
          "type": "address"
        },
        {
          "internalType": "address",
          "name": "to",
          "type": "address"
        },
        {
          "internalType": "uint256",
          "name": "tokenId",
          "type": "uint256"
        }
      ],
      "name": "transferFrom",
      "outputs": [],
      "stateMutability": "nonpayable",
      "type": "function"
    },
    {
      "inputs": [
        {
          "internalType": "address",
          "name": "to",
          "type": "address"
        },
        {
          "internalType": "string",
          "name": "tokenURI",
          "type": "string"
        },
        {
          "internalType": "bytes32",
          "name": "receipt",
          "type": "bytes32"
        }
      ],
      "name": "mintNFT",
      "outputs": [],
      "stateMutability": "nonpayable",
      "type": "function"
    },
    {
      "inputs": [],
      "name": "isMintValid",
      "outputs": [
        {
          "internalType": "bool",
          "name": "",
          "type": "bool"
        }
      ],
      "stateMutability": "view",
      "type": "function"
    },
    {
      "inputs": [
        {
          "internalType": "address",
          "name": "wallet",
          "type": "address"
        }
      ],
      "name": "hasMinted",
      "outputs": [
        {
          "internalType": "bool",
          "name": "",
          "type": "bool"
        }
      ],
      "stateMutability": "view",
      "type": "function"
    },
    {
      "inputs": [
        {
          "internalType": "bytes32",
          "name": "receipt",
          "type": "bytes32"
        }
      ],
      "name": "hasReceipt",
      "outputs": [
        {
          "internalType": "bool",
          "name": "",
          "type": "bool"
        }
      ],
      "stateMutability": "view",
      "type": "function"
    }
  ],
  "bytecode": "0x608060405234801562000010575f80fd5b506040518060400160405280600581526020017f4d794e46540000000000000000000000000000000000000000000000000000008152506040518060400160405280600381526020017f4e46540000000000000000000000000000000000000000000000000000000000815250815f90816200008d919062000313565b5080600190816200009f919062000313565b50505042600a81905550620003f7565b5f81519050919050565b7f4e487b71000000000000000000000000000000000000000000000000000000005f52604160045260245ffd5b7f4e487b71000000000000000000000000000000000000000000000000000000005f52602260045260245ffd5b5f60028204905060018216806200012b57607f821691505b602082108103620001415762000140620000e6565b5b50919050565b5f819050815f5260205f209050919050565b5f6020601f8301049050919050565b5f82821b905092915050565b5f60088302620001a57fffffffffffffffffffffffffffffffffffffffffffffffffffffffffffffffff8262000168565b620001b1868362000168565b95508019841693508086168417925050509392505050565b5f819050919050565b5f819050919050565b5f620001fb620001f5620001ef84620001c9565b620001d2565b620001c9565b9050919050565b5f819050919050565b6200021683620001db565b6200022e620002258262000202565b84845462000174565b825550505050565b5f90565b6200024462000236565b620002518184846200020b565b505050565b5b8181101562000278576200026c5f826200023a565b60018101905062000257565b5050565b601f821115620002c757620002918162000147565b6200029c8462000159565b81016020851015620002ac578190505b620002c4620002bb8562000159565b83018262000256565b50505b505050565b5f82821c905092915050565b5f620002e95f1984600802620002cc565b1980831691505092915050565b5f620003038383620002d8565b9150826002028217905092915050565b6200031e82620000af565b67ffffffffffffffff8111156200033a5762000339620000b9565b5b62000346825462000113565b620003538282856200027c565b5f60209050601f83116001811462000389575f841562000374578287015190505b620003808582620002f6565b865550620003ef565b601f198416620003998662000147565b5f5b82811015620003c2578489015182556001820191506020850194506020810190506200039b565b86831015620003e25784890151620003de601f891682620002d8565b8355505b6001600288020188555050505b505050505050565b612f2c80620004055f395ff3fe608060405234801561000f575f80fd5b5060043610610109575f3560e01c806370a08231116100a0578063a22cb4651161006f578063a22cb465146102c7578063b88d4fde146102e3578063c87b56dd146102ff578063e985e9c51461032f578063f4e98e0b1461035f57610109565b806370a082311461023f5780637de247951461026f57806383429ea91461028d57806395d89b41146102a957610109565b806323b872dd116100dc57806323b872dd146101a757806338e21cce146101c357806342842e0e146101f35780636352211e1461020f57610109565b806301ffc9a71461010d57806306fdde031461013d578063081812fc1461015b578063095ea7b31461018b575b5f80fd5b61012760048036038101906101229190611c9d565b61038f565b6040516101349190611ce2565b60405180910390f35b6101456103ef565b6040516101529190611d85565b60405180910390f35b61017560048036038101906101709190611dd8565b61047e565b6040516101829190611e42565b60405180910390f35b6101a560048036038101906101a09190611e85565b6104c0565b005b6101c160048036038101906101bc9190611ec3565b6105d6565b005b6101dd60048036038101906101d89190611f13565b610636565b6040516101ea9190611ce2565b60405180910390f35b61020d60048036038101906102089190611ec3565b610688565b005b61022960048036038101906102249190611dd8565b6106a7565b6040516102369190611e42565b60405180910390f35b61025960048036038101906102549190611f13565b61072b565b6040516102669190611f4d565b60405180910390f35b6102776107df565b6040516102849190611ce2565b60405180910390f35b6102a760048036038101906102a291906120c5565b6107f9565b005b6102b16109d1565b6040516102be9190611d85565b60405180910390f35b6102e160048036038101906102dc919061215b565b610a61565b005b6102fd60048036038101906102f89190612237565b610a77565b005b61031960048036038101906103149190611dd8565b610ad9565b6040516103269190611d85565b60405180910390f35b610349600480360381019061034491906122b7565b610be3565b6040516103569190611ce2565b60405180910390f35b610379600480360381019061037491906122f5565b610c71565b6040516103869190611ce2565b60405180910390f35b5f634906490660e01b7bffffffffffffffffffffffffffffffffffffffffffffffffffffffff1916827bffffffffffffffffffffffffffffffffffffffffffffffffffffffff191614806103e857506103e782610c97565b5b9050919050565b60605f80546103fd9061234d565b80601f01602080910402602001604051908101604052809291908181526020018280546104299061234d565b80156104745780601f1061044b57610100808354040283529160200191610474565b820191905f5260205f20905b81548152906001019060200180831161045757829003601f168201915b5050505050905090565b5f61048882610d78565b60045f8381526020019081526020015f205f9054906101000a900473ffffffffffffffffffffffffffffffffffffffff169050919050565b5f6104ca826106a7565b90508073ffffffffffffffffffffffffffffffffffffffff168373ffffffffffffffffffffffffffffffffffffffff160361053a576040517f08c379a0000000000000000000000000000000000000000000000000000000008152600401610531906123ed565b60405180910390fd5b8073ffffffffffffffffffffffffffffffffffffffff16610559610dc3565b73ffffffffffffffffffffffffffffffffffffffff161480610588575061058781610582610dc3565b610be3565b5b6105c7576040517f08c379a00000000000000000000000000000000000000000000000000000000081526004016105be9061247b565b60405180910390fd5b6105d18383610dca565b505050565b6105e76105e1610dc3565b82610e80565b610626576040517f08c379a000000000000000000000000000000000000000000000000000000000815260040161061d90612509565b60405180910390fd5b610631838383610f14565b505050565b5f60085f8373ffffffffffffffffffffffffffffffffffffffff1673ffffffffffffffffffffffffffffffffffffffff1681526020019081526020015f205f9054906101000a900460ff169050919050565b6106a283838360405180602001604052805f815250610a77565b505050565b5f806106b283611200565b90505f73ffffffffffffffffffffffffffffffffffffffff168173ffffffffffffffffffffffffffffffffffffffff1603610722576040517f08c379a000000000000000000000000000000000000000000000000000000000815260040161071990612571565b60405180910390fd5b80915050919050565b5f8073ffffffffffffffffffffffffffffffffffffffff168273ffffffffffffffffffffffffffffffffffffffff160361079a576040517f08c379a0000000000000000000000000000000000000000000000000000000008152600401610791906125ff565b60405180910390fd5b60035f8373ffffffffffffffffffffffffffffffffffffffff1673ffffffffffffffffffffffffffffffffffffffff1681526020019081526020015f20549050919050565b5f62093a80600a546107f1919061264a565b421115905090565b62093a80600a5461080a919061264a565b42111561084c576040517f08c379a0000000000000000000000000000000000000000000000000000000008152600401610843906126c7565b60405180910390fd5b60085f3373ffffffffffffffffffffffffffffffffffffffff1673ffffffffffffffffffffffffffffffffffffffff1681526020019081526020015f205f9054906101000a900460ff16156108d6576040517f08c379a00000000000000000000000000000000000000000000000000000000081526004016108cd9061272f565b60405180910390fd5b60066108e26007611239565b10610922576040517f08c379a000000000000000000000000000000000000000000000000000000000815260040161091990612797565b60405180910390fd5b600160085f3373ffffffffffffffffffffffffffffffffffffffff1673ffffffffffffffffffffffffffffffffffffffff1681526020019081526020015f205f6101000a81548160ff021916908315150217905550600160095f8381526020019081526020015f205f6101000a81548160ff0219169083151502179055506109aa6007611245565b5f6109b56007611239565b90506109c18482611259565b6109cb8184611276565b50505050565b6060600180546109e09061234d565b80601f0160208091040260200160405190810160405280929190818152602001828054610a0c9061234d565b8015610a575780601f10610a2e57610100808354040283529160200191610a57565b820191905f5260205f20905b815481529060010190602001808311610a3a57829003601f168201915b5050505050905090565b610a73610a6c610dc3565b8383611318565b5050565b610a88610a82610dc3565b83610e80565b610ac7576040517f08c379a0000000000000000000000000000000000000000000000000000000008152600401610abe90612509565b60405180910390fd5b610ad38484848461147f565b50505050565b6060610ae482610d78565b5f60065f8481526020019081526020015f208054610b019061234d565b80601f0160208091040260200160405190810160405280929190818152602001828054610b2d9061234d565b8015610b785780601f10610b4f57610100808354040283529160200191610b78565b820191905f5260205f20905b815481529060010190602001808311610b5b57829003601f168201915b505050505090505f610b886114db565b90505f815103610b9c578192505050610bde565b5f82511115610bd0578082604051602001610bb89291906127ef565b60405160208183030381529060405292505050610bde565b610bd9846114f1565b925050505b919050565b5f60055f8473ffffffffffffffffffffffffffffffffffffffff1673ffffffffffffffffffffffffffffffffffffffff1681526020019081526020015f205f8373ffffffffffffffffffffffffffffffffffffffff1673ffffffffffffffffffffffffffffffffffffffff1681526020019081526020015f205f9054906101000a900460ff16905092915050565b5f60095f8381526020019081526020015f205f9054906101000a900460ff169050919050565b5f7f80ac58cd000000000000000000000000000000000000000000000000000000007bffffffffffffffffffffffffffffffffffffffffffffffffffffffff1916827bffffffffffffffffffffffffffffffffffffffffffffffffffffffff19161480610d6157507f5b5e139f000000000000000000000000000000000000000000000000000000007bffffffffffffffffffffffffffffffffffffffffffffffffffffffff1916827bffffffffffffffffffffffffffffffffffffffffffffffffffffffff1916145b80610d715750610d7082611556565b5b9050919050565b610d81816115bf565b610dc0576040517f08c379a0000000000000000000000000000000000000000000000000000000008152600401610db790612571565b60405180910390fd5b50565b5f33905090565b8160045f8381526020019081526020015f205f6101000a81548173ffffffffffffffffffffffffffffffffffffffff021916908373ffffffffffffffffffffffffffffffffffffffff160217905550808273ffffffffffffffffffffffffffffffffffffffff16610e3a836106a7565b73ffffffffffffffffffffffffffffffffffffffff167f8c5be1e5ebec7d5bd14f71427d1e84f3dd0314c0f7b2291e5b200ac8c7c3b92560405160405180910390a45050565b5f80610e8b836106a7565b90508073ffffffffffffffffffffffffffffffffffffffff168473ffffffffffffffffffffffffffffffffffffffff161480610ecd5750610ecc8185610be3565b5b80610f0b57508373ffffffffffffffffffffffffffffffffffffffff16610ef38461047e565b73ffffffffffffffffffffffffffffffffffffffff16145b91505092915050565b8273ffffffffffffffffffffffffffffffffffffffff16610f34826106a7565b73ffffffffffffffffffffffffffffffffffffffff1614610f8a576040517f08c379a0000000000000000000000000000000000000000000000000000000008152600401610f8190612882565b60405180910390fd5b5f73ffffffffffffffffffffffffffffffffffffffff168273ffffffffffffffffffffffffffffffffffffffff1603610ff8576040517f08c379a0000000000000000000000000000000000000000000000000000000008152600401610fef90612910565b60405180910390fd5b61100583838360016115ff565b8273ffffffffffffffffffffffffffffffffffffffff16611025826106a7565b73ffffffffffffffffffffffffffffffffffffffff161461107b576040517f08c379a000000000000000000000000000000000000000000000000000000000815260040161107290612882565b60405180910390fd5b60045f8281526020019081526020015f205f6101000a81549073ffffffffffffffffffffffffffffffffffffffff0219169055600160035f8573ffffffffffffffffffffffffffffffffffffffff1673ffffffffffffffffffffffffffffffffffffffff1681526020019081526020015f205f8282540392505081905550600160035f8473ffffffffffffffffffffffffffffffffffffffff1673ffffffffffffffffffffffffffffffffffffffff1681526020019081526020015f205f82825401925050819055508160025f8381526020019081526020015f205f6101000a81548173ffffffffffffffffffffffffffffffffffffffff021916908373ffffffffffffffffffffffffffffffffffffffff160217905550808273ffffffffffffffffffffffffffffffffffffffff168473ffffffffffffffffffffffffffffffffffffffff167fddf252ad1be2c89b69c2b068fc378daa952ba7f163c4a11628f55a4df523b3ef60405160405180910390a46111fb8383836001611605565b505050565b5f60025f8381526020019081526020015f205f9054906101000a900473ffffffffffffffffffffffffffffffffffffffff169050919050565b5f815f01549050919050565b6001815f015f828254019250508190555050565b611272828260405180602001604052805f81525061160b565b5050565b61127f826115bf565b6112be576040517f08c379a00000000000000000000000000000000000000000000000000000000081526004016112b59061299e565b60405180910390fd5b8060065f8481526020019081526020015f2090816112dc9190612b59565b507ff8e1a15aba9398e019f0b49df1a4fde98ee17ae345cb5f6b5e2c27f5033e8ce78260405161130c9190611f4d565b60405180910390a15050565b8173ffffffffffffffffffffffffffffffffffffffff168373ffffffffffffffffffffffffffffffffffffffff1603611386576040517f08c379a000000000000000000000000000000000000000000000000000000000815260040161137d90612c72565b60405180910390fd5b8060055f8573ffffffffffffffffffffffffffffffffffffffff1673ffffffffffffffffffffffffffffffffffffffff1681526020019081526020015f205f8473ffffffffffffffffffffffffffffffffffffffff1673ffffffffffffffffffffffffffffffffffffffff1681526020019081526020015f205f6101000a81548160ff0219169083151502179055508173ffffffffffffffffffffffffffffffffffffffff168373ffffffffffffffffffffffffffffffffffffffff167f17307eab39ab6107e8899845ad3d59bd9653f200f220920489ca2b5937696c31836040516114729190611ce2565b60405180910390a3505050565b61148a848484610f14565b61149684848484611665565b6114d5576040517f08c379a00000000000000000000000000000000000000000000000000000000081526004016114cc90612d00565b60405180910390fd5b50505050565b606060405180602001604052805f815250905090565b60606114fc82610d78565b5f6115056114db565b90505f8151116115235760405180602001604052805f81525061154e565b8061152d846117e7565b60405160200161153e9291906127ef565b6040516020818303038152906040525b915050919050565b5f7f01ffc9a7000000000000000000000000000000000000000000000000000000007bffffffffffffffffffffffffffffffffffffffffffffffffffffffff1916827bffffffffffffffffffffffffffffffffffffffffffffffffffffffff1916149050919050565b5f8073ffffffffffffffffffffffffffffffffffffffff166115e083611200565b73ffffffffffffffffffffffffffffffffffffffff1614159050919050565b50505050565b50505050565b61161583836118b1565b6116215f848484611665565b611660576040517f08c379a000000000000000000000000000000000000000000000000000000000815260040161165790612d00565b60405180910390fd5b505050565b5f6116858473ffffffffffffffffffffffffffffffffffffffff16611ac4565b156117da578373ffffffffffffffffffffffffffffffffffffffff1663150b7a026116ae610dc3565b8786866040518563ffffffff1660e01b81526004016116d09493929190612d70565b6020604051808303815f875af192505050801561170b57506040513d601f19601f820116820180604052508101906117089190612dce565b60015b61178a573d805f8114611739576040519150601f19603f3d011682016040523d82523d5f602084013e61173e565b606091505b505f815103611782576040517f08c379a000000000000000000000000000000000000000000000000000000000815260040161177990612d00565b60405180910390fd5b805181602001fd5b63150b7a0260e01b7bffffffffffffffffffffffffffffffffffffffffffffffffffffffff1916817bffffffffffffffffffffffffffffffffffffffffffffffffffffffff1916149150506117df565b600190505b949350505050565b60605f60016117f584611ae6565b0190505f8167ffffffffffffffff81111561181357611812611f6e565b5b6040519080825280601f01601f1916602001820160405280156118455781602001600182028036833780820191505090505b5090505f82602001820190505b6001156118a6578080600190039150507f3031323334353637383961626364656600000000000000000000000000000000600a86061a8153600a858161189b5761189a612df9565b5b0494505f8503611852575b819350505050919050565b5f73ffffffffffffffffffffffffffffffffffffffff168273ffffffffffffffffffffffffffffffffffffffff160361191f576040517f08c379a000000000000000000000000000000000000000000000000000000000815260040161191690612e70565b60405180910390fd5b611928816115bf565b15611968576040517f08c379a000000000000000000000000000000000000000000000000000000000815260040161195f90612ed8565b60405180910390fd5b6119755f838360016115ff565b61197e816115bf565b156119be576040517f08c379a00000000000000000000000000000000000000000000000000000000081526004016119b590612ed8565b60405180910390fd5b600160035f8473ffffffffffffffffffffffffffffffffffffffff1673ffffffffffffffffffffffffffffffffffffffff1681526020019081526020015f205f82825401925050819055508160025f8381526020019081526020015f205f6101000a81548173ffffffffffffffffffffffffffffffffffffffff021916908373ffffffffffffffffffffffffffffffffffffffff160217905550808273ffffffffffffffffffffffffffffffffffffffff165f73ffffffffffffffffffffffffffffffffffffffff167fddf252ad1be2c89b69c2b068fc378daa952ba7f163c4a11628f55a4df523b3ef60405160405180910390a4611ac05f83836001611605565b5050565b5f808273ffffffffffffffffffffffffffffffffffffffff163b119050919050565b5f805f90507a184f03e93ff9f4daa797ed6e38ed64bf6a1f0100000000000000008310611b42577a184f03e93ff9f4daa797ed6e38ed64bf6a1f0100000000000000008381611b3857611b37612df9565b5b0492506040810190505b6d04ee2d6d415b85acef81000000008310611b7f576d04ee2d6d415b85acef81000000008381611b7557611b74612df9565b5b0492506020810190505b662386f26fc100008310611bae57662386f26fc100008381611ba457611ba3612df9565b5b0492506010810190505b6305f5e1008310611bd7576305f5e1008381611bcd57611bcc612df9565b5b0492506008810190505b6127108310611bfc576127108381611bf257611bf1612df9565b5b0492506004810190505b60648310611c1f5760648381611c1557611c14612df9565b5b0492506002810190505b600a8310611c2e576001810190505b80915050919050565b5f604051905090565b5f80fd5b5f80fd5b5f7fffffffff0000000000000000000000000000000000000000000000000000000082169050919050565b611c7c81611c48565b8114611c86575f80fd5b50565b5f81359050611c9781611c73565b92915050565b5f60208284031215611cb257611cb1611c40565b5b5f611cbf84828501611c89565b91505092915050565b5f8115159050919050565b611cdc81611cc8565b82525050565b5f602082019050611cf55f830184611cd3565b92915050565b5f81519050919050565b5f82825260208201905092915050565b5f5b83811015611d32578082015181840152602081019050611d17565b5f8484015250505050565b5f601f19601f8301169050919050565b5f611d5782611cfb565b611d618185611d05565b9350611d71818560208601611d15565b611d7a81611d3d565b840191505092915050565b5f6020820190508181035f830152611d9d8184611d4d565b905092915050565b5f819050919050565b611db781611da5565b8114611dc1575f80fd5b50565b5f81359050611dd281611dae565b92915050565b5f60208284031215611ded57611dec611c40565b5b5f611dfa84828501611dc4565b91505092915050565b5f73ffffffffffffffffffffffffffffffffffffffff82169050919050565b5f611e2c82611e03565b9050919050565b611e3c81611e22565b82525050565b5f602082019050611e555f830184611e33565b92915050565b611e6481611e22565b8114611e6e575f80fd5b50565b5f81359050611e7f81611e5b565b92915050565b5f8060408385031215611e9b57611e9a611c40565b5b5f611ea885828601611e71565b9250506020611eb985828601611dc4565b9150509250929050565b5f805f60608486031215611eda57611ed9611c40565b5b5f611ee786828701611e71565b9350506020611ef886828701611e71565b9250506040611f0986828701611dc4565b9150509250925092565b5f60208284031215611f2857611f27611c40565b5b5f611f3584828501611e71565b91505092915050565b611f4781611da5565b82525050565b5f602082019050611f605f830184611f3e565b92915050565b5f80fd5b5f80fd5b7f4e487b71000000000000000000000000000000000000000000000000000000005f52604160045260245ffd5b611fa482611d3d565b810181811067ffffffffffffffff82111715611fc357611fc2611f6e565b5b80604052505050565b5f611fd5611c37565b9050611fe18282611f9b565b919050565b5f67ffffffffffffffff82111561200057611fff611f6e565b5b61200982611d3d565b9050602081019050919050565b828183375f83830152505050565b5f61203661203184611fe6565b611fcc565b90508281526020810184848401111561205257612051611f6a565b5b61205d848285612016565b509392505050565b5f82601f83011261207957612078611f66565b5b8135612089848260208601612024565b91505092915050565b5f819050919050565b6120a481612092565b81146120ae575f80fd5b50565b5f813590506120bf8161209b565b92915050565b5f805f606084860312156120dc576120db611c40565b5b5f6120e986828701611e71565b935050602084013567ffffffffffffffff81111561210a57612109611c44565b5b61211686828701612065565b9250506040612127868287016120b1565b9150509250925092565b61213a81611cc8565b8114612144575f80fd5b50565b5f8135905061215581612131565b92915050565b5f806040838503121561217157612170611c40565b5b5f61217e85828601611e71565b925050602061218f85828601612147565b9150509250929050565b5f67ffffffffffffffff8211156121b3576121b2611f6e565b5b6121bc82611d3d565b9050602081019050919050565b5f6121db6121d684612199565b611fcc565b9050828152602081018484840111156121f7576121f6611f6a565b5b612202848285612016565b509392505050565b5f82601f83011261221e5761221d611f66565b5b813561222e8482602086016121c9565b91505092915050565b5f805f806080858703121561224f5761224e611c40565b5b5f61225c87828801611e71565b945050602061226d87828801611e71565b935050604061227e87828801611dc4565b925050606085013567ffffffffffffffff81111561229f5761229e611c44565b5b6122ab8782880161220a565b91505092959194509250565b5f80604083850312156122cd576122cc611c40565b5b5f6122da85828601611e71565b92505060206122eb85828601611e71565b9150509250929050565b5f6020828403121561230a57612309611c40565b5b5f612317848285016120b1565b91505092915050565b7f4e487b71000000000000000000000000000000000000000000000000000000005f52602260045260245ffd5b5f600282049050600182168061236457607f821691505b60208210810361237757612376612320565b5b50919050565b7f4552433732313a20617070726f76616c20746f2063757272656e74206f776e655f8201527f7200000000000000000000000000000000000000000000000000000000000000602082015250565b5f6123d7602183611d05565b91506123e28261237d565b604082019050919050565b5f6020820190508181035f830152612404816123cb565b9050919050565b7f4552433732313a20617070726f76652063616c6c6572206973206e6f7420746f5f8201527f6b656e206f776e6572206f7220617070726f76656420666f7220616c6c000000602082015250565b5f612465603d83611d05565b91506124708261240b565b604082019050919050565b5f6020820190508181035f83015261249281612459565b9050919050565b7f4552433732313a2063616c6c6572206973206e6f7420746f6b656e206f776e655f8201527f72206f7220617070726f76656400000000000000000000000000000000000000602082015250565b5f6124f3602d83611d05565b91506124fe82612499565b604082019050919050565b5f6020820190508181035f830152612520816124e7565b9050919050565b7f4552433732313a20696e76616c696420746f6b656e20494400000000000000005f82015250565b5f61255b601883611d05565b915061256682612527565b602082019050919050565b5f6020820190508181035f8301526125888161254f565b9050919050565b7f4552433732313a2061646472657373207a65726f206973206e6f7420612076615f8201527f6c6964206f776e65720000000000000000000000000000000000000000000000602082015250565b5f6125e9602983611d05565b91506125f48261258f565b604082019050919050565b5f6020820190508181035f830152612616816125dd565b9050919050565b7f4e487b71000000000000000000000000000000000000000000000000000000005f52601160045260245ffd5b5f61265482611da5565b915061265f83611da5565b92508282019050808211156126775761267661261d565b5b92915050565b7f4d696e74696e6720706572696f642068617320656e64656400000000000000005f82015250565b5f6126b1601883611d05565b91506126bc8261267d565b602082019050919050565b5f6020820190508181035f8301526126de816126a5565b9050919050565b7f456163682077616c6c65742063616e206d696e74206f6e6c79206f6e636500005f82015250565b5f612719601e83611d05565b9150612724826126e5565b602082019050919050565b5f6020820190508181035f8301526127468161270d565b9050919050565b7f4d6178696d756d206e756d626572206f66204e465473206d696e7465640000005f82015250565b5f612781601d83611d05565b915061278c8261274d565b602082019050919050565b5f6020820190508181035f8301526127ae81612775565b9050919050565b5f81905092915050565b5f6127c982611cfb565b6127d381856127b5565b93506127e3818560208601611d15565b80840191505092915050565b5f6127fa82856127bf565b915061280682846127bf565b91508190509392505050565b7f4552433732313a207472616e736665722066726f6d20696e636f7272656374205f8201527f6f776e6572000000000000000000000000000000000000000000000000000000602082015250565b5f61286c602583611d05565b915061287782612812565b604082019050919050565b5f6020820190508181035f83015261289981612860565b9050919050565b7f4552433732313a207472616e7366657220746f20746865207a65726f206164645f8201527f7265737300000000000000000000000000000000000000000000000000000000602082015250565b5f6128fa602483611d05565b9150612905826128a0565b604082019050919050565b5f6020820190508181035f830152612927816128ee565b9050919050565b7f45524337323155524953746f726167653a2055524920736574206f66206e6f6e5f8201527f6578697374656e7420746f6b656e000000000000000000000000000000000000602082015250565b5f612988602e83611d05565b91506129938261292e565b604082019050919050565b5f6020820190508181035f8301526129b58161297c565b9050919050565b5f819050815f5260205f209050919050565b5f6020601f8301049050919050565b5f82821b905092915050565b5f60088302612a187fffffffffffffffffffffffffffffffffffffffffffffffffffffffffffffffff826129dd565b612a2286836129dd565b95508019841693508086168417925050509392505050565b5f819050919050565b5f612a5d612a58612a5384611da5565b612a3a565b611da5565b9050919050565b5f819050919050565b612a7683612a43565b612a8a612a8282612a64565b8484546129e9565b825550505050565b5f90565b612a9e612a92565b612aa9818484612a6d565b505050565b5b81811015612acc57612ac15f82612a96565b600181019050612aaf565b5050565b601f821115612b1157612ae2816129bc565b612aeb846129ce565b81016020851015612afa578190505b612b0e612b06856129ce565b830182612aae565b50505b505050565b5f82821c905092915050565b5f612b315f1984600802612b16565b1980831691505092915050565b5f612b498383612b22565b9150826002028217905092915050565b612b6282611cfb565b67ffffffffffffffff811115612b7b57612b7a611f6e565b5b612b85825461234d565b612b90828285612ad0565b5f60209050601f831160018114612bc1575f8415612baf578287015190505b612bb98582612b3e565b865550612c20565b601f198416612bcf866129bc565b5f5b82811015612bf657848901518255600182019150602085019450602081019050612bd1565b86831015612c135784890151612c0f601f891682612b22565b8355505b6001600288020188555050505b505050505050565b7f4552433732313a20617070726f766520746f2063616c6c6572000000000000005f82015250565b5f612c5c601983611d05565b9150612c6782612c28565b602082019050919050565b5f6020820190508181035f830152612c8981612c50565b9050919050565b7f4552433732313a207472616e7366657220746f206e6f6e2045524337323152655f8201527f63656976657220696d706c656d656e7465720000000000000000000000000000602082015250565b5f612cea603283611d05565b9150612cf582612c90565b604082019050919050565b5f6020820190508181035f830152612d1781612cde565b9050919050565b5f81519050919050565b5f82825260208201905092915050565b5f612d4282612d1e565b612d4c8185612d28565b9350612d5c818560208601611d15565b612d6581611d3d565b840191505092915050565b5f608082019050612d835f830187611e33565b612d906020830186611e33565b612d9d6040830185611f3e565b8181036060830152612daf8184612d38565b905095945050505050565b5f81519050612dc881611c73565b92915050565b5f60208284031215612de357612de2611c40565b5b5f612df084828501612dba565b91505092915050565b7f4e487b71000000000000000000000000000000000000000000000000000000005f52601260045260245ffd5b7f4552433732313a206d696e7420746f20746865207a65726f20616464726573735f82015250565b5f612e5a602083611d05565b9150612e6582612e26565b602082019050919050565b5f6020820190508181035f830152612e8781612e4e565b9050919050565b7f4552433732313a20746f6b656e20616c7265616479206d696e746564000000005f82015250565b5f612ec2601c83611d05565b9150612ecd82612e8e565b602082019050919050565b5f6020820190508181035f830152612eef81612eb6565b905091905056fea2646970667358221220816725af4341ca8a05713de34123b34fc4675220b75544cda6704a11d793977e64736f6c63430008140033",
  "immutableReferences": {},
  "source": "// SPDX-License-Identifier: MIT\npragma solidity ^0.8.0;\n\nimport \"@openzeppelin/contracts/token/ERC721/extensions/ERC721URIStorage.sol\";\nimport \"@openzeppelin/contracts/utils/Counters.sol\";\n\ncontract NFTContract is ERC721URIStorage {\n    using Counters for Counters.Counter;\n    Counters.Counter private _tokenIdCounter;\n\n    uint256 private constant MAX_MINTS = 6;\n    uint256 private constant MINT_DURATION = 7 days;\n\n    mapping(address => bool) private _hasMinted;\n    mapping(bytes32 => bool) private _receipts;\n\n    uint256 private _mintStart;\n\n    constructor() ERC721(\"MyNFT\", \"NFT\") {\n        _mintStart = block.timestamp;\n    }\n\n    modifier onlyDuringMintingPeriod() {\n        require(block.timestamp <= _mintStart + MINT_DURATION, \"Minting period has ended\");\n        _;\n    }\n\n    function mintNFT(address to, string memory tokenURI, bytes32 receipt) public onlyDuringMintingPeriod {\n        require(!_hasMinted[msg.sender], \"Each wallet can mint only once\");\n        require(_tokenIdCounter.current() < MAX_MINTS, \"Maximum number of NFTs minted\");\n\n        _hasMinted[msg.sender] = true;\n        _receipts[receipt] = true;\n\n        _tokenIdCounter.increment();\n        uint256 tokenId = _tokenIdCounter.current();\n        _safeMint(to, tokenId);\n        _setTokenURI(tokenId, tokenURI);\n    }\n\n    function isMintValid() public view returns (bool) {\n        return (block.timestamp <= _mintStart + MINT_DURATION);\n    }\n\n    function hasMinted(address wallet) public view returns (bool) {\n        return _hasMinted[wallet];\n    }\n\n    function hasReceipt(bytes32 receipt) public view returns (bool) {\n        return _receipts[receipt];\n    }\n}\n",
  "sourcePath": "/home/syed/benz-nft/benz-nft/contracts/NFTContract.sol",
  "compiler": {
    "name": "solc",
    "version": "0.8.20+commit.a1b79de6.Emscripten.clang"
  },
  "schemaVersion": "3.4.14",
  "updatedAt": "2023-05-28T07:46:58.854Z",
  "devdoc": {
    "events": {
      "Approval(address,address,uint256)": {
        "details": "Emitted when `owner` enables `approved` to manage the `tokenId` token."
      },
      "ApprovalForAll(address,address,bool)": {
        "details": "Emitted when `owner` enables or disables (`approved`) `operator` to manage all of its assets."
      },
      "BatchMetadataUpdate(uint256,uint256)": {
        "details": "This event emits when the metadata of a range of tokens is changed. So that the third-party platforms such as NFT market could timely update the images and related attributes of the NFTs."
      },
      "MetadataUpdate(uint256)": {
        "details": "This event emits when the metadata of a token is changed. So that the third-party platforms such as NFT market could timely update the images and related attributes of the NFT."
      },
      "Transfer(address,address,uint256)": {
        "details": "Emitted when `tokenId` token is transferred from `from` to `to`."
      }
    },
    "kind": "dev",
    "methods": {
      "approve(address,uint256)": {
        "details": "See {IERC721-approve}."
      },
      "balanceOf(address)": {
        "details": "See {IERC721-balanceOf}."
      },
      "getApproved(uint256)": {
        "details": "See {IERC721-getApproved}."
      },
      "isApprovedForAll(address,address)": {
        "details": "See {IERC721-isApprovedForAll}."
      },
      "name()": {
        "details": "See {IERC721Metadata-name}."
      },
      "ownerOf(uint256)": {
        "details": "See {IERC721-ownerOf}."
      },
      "safeTransferFrom(address,address,uint256)": {
        "details": "See {IERC721-safeTransferFrom}."
      },
      "safeTransferFrom(address,address,uint256,bytes)": {
        "details": "See {IERC721-safeTransferFrom}."
      },
      "setApprovalForAll(address,bool)": {
        "details": "See {IERC721-setApprovalForAll}."
      },
      "supportsInterface(bytes4)": {
        "details": "See {IERC165-supportsInterface}"
      },
      "symbol()": {
        "details": "See {IERC721Metadata-symbol}."
      },
      "tokenURI(uint256)": {
        "details": "See {IERC721Metadata-tokenURI}."
      },
      "transferFrom(address,address,uint256)": {
        "details": "See {IERC721-transferFrom}."
      }
    },
    "version": 1
  },
  "userdoc": {
    "kind": "user",
    "methods": {},
    "version": 1
  }
}